:100000000C9462000C948A000C948A000C948A0070
:100010000C948A000C948A000C948A000C948A0038
:100020000C948A000C948A000C948A000C948A0028
:100030000C948A000C948A000C948A000C948A0018
:100040000C944F030C948A000C941D030C94F7023B
:100050000C948A000C948A000C948A000C948A00F8
:100060000C948A000C948A000000000023002600F3
:10007000290000000008000201000003040700003E
:1000800000000000000000000000250028002B00F8
:1000900000000000240027002A00040404040404D3
:1000A0000404020202020202030303030303010227
:1000B00004081020408001020408102001020408F6
:1000C0001020990311241FBECFEFD8E0DEBFCDBFB3
:1000D00011E0A0E0B1E0E2E5FBE002C005900D9286
:1000E000A835B107D9F722E0A8E5B1E001C01D921B
:1000F000A931B207E1F710E0C2E6D0E004C02197D1
:10010000FE010E949C05C136D107C9F70E945A041E
:100110000C94A7050C940000CF92DF92EF92FF920F
:100120000F931F93CF93DF936C017A018B01C0E093
:10013000D0E0CE15DF0589F0D8016D918D01D60193
:10014000ED91FC910190F081E02DC6010995892B7C
:1001500011F47E0102C02196ECCFC701DF91CF914F
:100160001F910F91FF90EF90DF90CF900895089529
:1001700080E090E00895FC01538D448D252F30E000
:10018000842F90E0821B930B541710F0CF960895A4
:1001900001970895FC01918D828D981761F0828DF1
:1001A000DF01A80FB11D5D968C91928D9F5F9F73AB
:1001B000928F90E008958FEF9FEF0895FC01918D4D
:1001C000828D981731F0828DE80FF11D858D90E0BA
:1001D00008958FEF9FEF0895FC01918D228D892F57
:1001E00090E0805C9F4F821B91098F73992708953F
:1001F00081E691E00E94EC0021E0892B09F420E0E7
:10020000822F0895FC01848DDF01A80FB11DA35A30
:10021000BF4F2C91848D90E001968F739927848F26
:10022000A689B7892C93A089B1898C9180648C931D
:10023000938D848D981306C00288F389E02D808108
:100240008F7D80830895EF92FF920F931F93CF933A
:10025000DF93EC0181E0888F9B8D8C8D981305C016
:10026000E889F989808185FD24C0F62E0B8D10E088
:100270000F5F1F4F0F731127E02E8C8DE8120CC0FB
:100280000FB607FCFACFE889F989808185FFF5CFA1
:10029000CE010E940201F1CF8B8DFE01E80FF11D0E
:1002A000E35AFF4FF0820B8FEA89FB8980818062DD
:1002B00007C0EE89FF896083E889F98980818064BD
:1002C000808381E090E0DF91CF911F910F91FF90AB
:1002D000EF900895CF93DF93EC01888D8823C9F0C8
:1002E000EA89FB89808185FD05C0A889B9898C913F
:1002F00086FD0FC00FB607FCF5CF808185FFF2CFDA
:10030000A889B9898C9185FFEDCFCE010E940201A9
:10031000E7CFDF91CF91089580E090E0892B29F01D
:100320000E94F80081110C9400000895833081F040
:1003300028F4813099F08230A1F008958730A9F037
:100340008830B9F08430D1F4809180008F7D03C073
:10035000809180008F7780938000089584B58F7797
:1003600002C084B58F7D84BD08958091B0008F77E1
:1003700003C08091B0008F7D8093B0000895CF932B
:10038000DF93282F30E0F901EE58FF4F8491F901F7
:10039000E255FF4FD491F901E656FF4FC491CC23AB
:1003A00091F081110E949601EC2FF0E0EE0FFF1FFB
:1003B000E859FF4FA591B491EC91ED2381E090E0D5
:1003C00021F480E002C080E090E0DF91CF910895B9
:1003D0001F93CF93DF93282F30E0F901EE58FF4FA2
:1003E0008491F901E255FF4FD491F901E656FF4F90
:1003F000C491CC23C9F0162F81110E949601EC2FD5
:10040000F0E0EE0FFF1FEA57FF4FA591B4918FB7B1
:10041000F894111105C09C91ED2FE095E92302C0DD
:10042000EC91ED2BEC938FBFDF91CF911F9108954D
:100430003FB7F89480915D0190915E01A0915F01BA
:10044000B091600126B5A89B05C02F3F19F0019619
:10045000A11DB11D3FBFBA2FA92F982F8827820F4A
:10046000911DA11DB11DBC01CD0142E0660F771F9A
:10047000881F991F4A95D1F708952F923F924F9266
:100480005F926F927F928F929F92AF92BF92CF9224
:10049000DF92EF92FF920F931F93CF93DF93EB01C5
:1004A0002DB63EB628823982EC01288039804FB6BD
:1004B000F8943EBE2DBE4FBEDF91CF911F910F919C
:1004C000FF90EF90DF90CF90BF90AF909F908F9074
:1004D0007F906F905F904F903F902F900895CF93B3
:1004E000DF93EC01EA81FB81BC01685F7F4F3097AD
:1004F00021F085818C72843039F0109203021092C1
:1005000002028EEF91E00AC0F0930102E093000234
:10051000F0930302E0930202CF0108960E943D028D
:100520000FB6F89486B515B290915D010FBE10FE1E
:1005300003C08F3F09F0915011240024990F990FA7
:10054000880F001C880F001C90299F878E87DF91E1
:10055000CF91089520910402211116C0FC01228937
:1005600033892617370714F4738B628BFC012089BB
:100570003189A90155954795641B750B620F731F4F
:10058000718B608B0C946F020895009769F0FC01E9
:1005900001900020E9F73197AF01481B590BBC01CE
:1005A00081E691E00C948C0080E090E00895CF9378
:1005B000DF930E94C502EC0182E191E00E94C50236
:1005C0008C0F9D1FDF91CF910895809118020E949A
:1005D000BF0161E0892B09F060E0809118020E9460
:1005E000E80185E191E00C94C5020E94A2051F92EA
:1005F0000F920FB60F9211242F933F934F935F9357
:100600006F937F938F939F93AF93BF93EF93FF93DA
:1006100081E691E00E940201FF91EF91BF91AF91BD
:100620009F918F917F916F915F914F913F912F910A
:100630000F900FBE0F901F9018951F920F920FB63C
:100640000F9211242F938F939F93EF93FF93E09139
:100650007101F09172018081E0917701F091780150
:1006600082FD12C0908180917A018F5F8F732091FB
:100670007B01821751F0E0917A01F0E0EF59FE4FD3
:10068000958F80937A0101C08081FF91EF919F91B6
:100690008F912F910F900FBE0F901F9018951F9262
:1006A0000F920FB60F9211242F933F938F939F9326
:1006B000AF93BF938091590190915A01A0915B0132
:1006C000B0915C013091580123E0230F2D3720F4C5
:1006D0000196A11DB11D05C026E8230F0296A11D9C
:1006E000B11D209358018093590190935A01A09312
:1006F0005B01B0935C0180915D0190915E01A091DE
:100700005F01B09160010196A11DB11D80935D0153
:1007100090935E01A0935F01B0936001BF91AF9190
:100720009F918F913F912F910F900FBE0F901F902F
:100730001895CF93DF93109264011092630188EEB5
:1007400093E0A0E0B0E08093650190936601A093F0
:100750006701B093680184E091E090936201809317
:10076000610185EC90E090936E0180936D0184ECC3
:1007700090E09093700180936F0180EC90E09093F3
:1007800072018093710181EC90E0909374018093E9
:10079000730182EC90E0909376018093750186EC72
:1007A00090E0909378018093770110927A011092F3
:1007B0007B0110927C0110927D0180E991E0909381
:1007C000060280930502909308028093070210921C
:1007D0000A021092090210920C0210920B0210925F
:1007E0000E0210920D02109201021092000210925D
:1007F00003021092020281E0809304028DE0809354
:100800001802EBEBF0E02491E7EAF0E08491882312
:1008100099F090E0880F991FFC01E057FF4FA591D8
:10082000B491FC01EA57FF4F859194918FB7F894EA
:10083000EC91E22BEC938FBF82E08093150260E095
:100840000E94E8018091150290E0FC01E255FF4F03
:100850002491FC01E656FF4F84918823C1F090E07B
:10086000880F991FFC01E057FF4FC591D491FC01FF
:10087000EA57FF4FA591B4919FB7F8948881E22F72
:10088000E0958E2388838C91E823EC939FBF109290
:100890001702109216021092100210920F0210927C
:1008A0001202109211021092140210921302DF91A0
:1008B000CF910895789484B5826084BD84B58160B9
:1008C00084BD85B5826085BD85B5816085BD80911B
:1008D0006E00816080936E00109281008091810093
:1008E000826080938100809181008160809381008B
:1008F000809180008160809380008091B10084604D
:100900008093B1008091B00081608093B0008091AD
:100910007A00846080937A0080917A00826080936C
:100920007A0080917A00816080937A0080917A00C9
:10093000806880937A001092C100E0917101F0917B
:10094000720182E08083E0916D01F0916E0110826E
:10095000E0916F01F091700180E180831092790144
:10096000E0917501F091760186E08083E09173015A
:10097000F0917401808180618083E0917301F09136
:100980007401808188608083E0917301F09174012B
:10099000808180688083E0917301F091740180818F
:1009A0008F7D808389E191E00E94D70285EE92E0FD
:1009B0009093100280930F02809117028093160289
:1009C000809115020E94BF0180931702E0910F02EF
:1009D000F0911002099582E291E00E94D702809185
:1009E000170281110CC080911602813001F5E0914F
:1009F0001102F0911202099582E391E01AC0813050
:100A0000B1F480911602811108C0E0910F02F091BB
:100A1000100209958AE391E00CC0813041F4E09125
:100A20001302F0911402099584E491E002C08FE46E
:100A300091E00E94D7020E9418024B015C0184EFF2
:100A4000C82EDD24D394E12CF12C809102029091E8
:100A50000302009709F42EC0FC0144855585411519
:100A6000510509F10FB6F89426B515B230915D0124
:100A70000FBE10FE03C02F3F09F031501124002497
:100A8000330F330F220F001C220F001C3029668504
:100A90007785F901E61BF70BBF01E417F507B4F101
:100AA0000E94AA0233C02091040221112FC00E948B
:100AB0006F022CC080910402811128C08091000235
:100AC00090910102892B11F1C0910002D091010295
:100AD000E881F9810680F781E02DCE0109958A81B0
:100AE0009B819093010280930002ECCFF1E0CF1A3A
:100AF000D108E108F10828EE820E23E0921EA11C25
:100B0000B11CC114D104E104F10499F00E9418024F
:100B1000DC01CB0188199909AA09BB09883E9340D9
:100B2000A105B10518F7C114D104E104F10409F0DD
:100B30008CCF0E948C0140CFEE0FFF1F0590F491E7
:100B4000E02D099481E090E0F8940C94A705F894C6
:020B5000FFCFD5
:100B52000000000023018C00BB006A01EC00CA0007
:100B6200DE000D0A00202A200053746172742139BC
:100B7200390052657374617274212121212121216E
:100B820021006F6E4B65795570006F6E4B6579442D
:100B92006F776E006F6E4B6579507265737300B537
:080BA200B1C7B0D7B4CCAC0020
:00000001FF
